:100000000C9434000C9440050C9451000C94510055
:100010000C9451000C9451000C9451000C9451001C
:100020000C9451000C94D5050C9451000C94DF05F0
:100030000C9451000C9451000C94B1050C94510097
:100040000C94A7050C9451000C94FC080C948209A4
:100050000C9451000C9451000C9426040C94510003
:100060000C9451000C94510011241FBECFEFD8E026
:10007000DEBFCDBF11E0A0E0B1E0E6EDF4E102C0EB
:1000800005900D92AA30B107D9F711E0AAE0B1E0CE
:1000900001C01D92A539B107E1F70E9453000C94ED
:1000A000690A0C9400008FE39CE90197F1F700C006
:1000B00000000E946A060E94EF060E941A040E9435
:1000C0008B050E943C050E9472020E9451020E9410
:1000D0007E020E9475028FE097E20197F1F700C05F
:1000E00000000E9477020E9469070E948A070E940E
:1000F000B8088FE097E20197F1F700C000004B9B32
:1001000002C04C9904C084E08093120102C0109296
:10011000120182E084BD93E095BD9DE797BD809379
:100120006E00789412BC0E94B60280E065E070E038
:100130000E94220780E00E944407882341F08AE061
:1001400091E00E94E9058BE091E00E946D066091CC
:10015000000181E070E00E94220781E00E944407D4
:10016000882331F080911001909111010E947A034F
:1001700080911201882311F0833031F48091910134
:1001800080FD02C00E94D8070E94D1000E94810217
:100190000E9441010E948E050E948A040E94AF07BE
:1001A000C4CF80911201882321F0833009F068C008
:1001B00020C02091030130910401C901880F991FCB
:1001C00043E0220F331F4A95E1F7820F931F2091DE
:1001D0008B0130918C012817390708F451C081E058
:1001E0008093140183E0809312018AE080930001E0
:1001F000089520918B0130918C0140910101509123
:100200000201CA01880F991FA3E0440F551FAA9548
:10021000E1F7840F951F8217930738F010921401AD
:100220001092120185E080930001409103015091EA
:100230000401CA01880F991FE3E0440F551FEA9596
:10024000E1F7840F951FC2962817390718F081E04F
:10025000809314014091030150910401CA01880F59
:10026000991F63E0440F551F6A95E1F7840F951FAE
:100270008C599F4F2817390718F081E0809314019B
:10028000089583E00E94C007882329F487E00E9434
:10029000C007882359F180911201813091F081309B
:1002A00028F08230E9F0833009F0F5C081E08093D6
:1002B000120184E18093000180910101909102017B
:1002C0000AC082E0809312018AE08093000180914D
:1002D00003019091040190931101809310010895FE
:1002E0001092120185E080930001089581E00E9440
:1002F000C007882309F44FC0809112018230E1F0D9
:10030000833008F05BC0882309F45BC0813009F0BA
:10031000C2C0809101019091020101979093020166
:10032000809301018091010190910201009709F0F1
:1003300071C081E090E06AC0809103019091040156
:100340000197909304018093030120910301309160
:10035000040180910101909102012817390749F4A5
:100360008091010190910201019690930401809384
:1003700003018091030190910401909311018093F6
:1003800010018091030190910401909316018093D4
:10039000150188EC50C085E00E94C007882309F44D
:1003A0007AC080911201823009F44AC0833030F45F
:1003B000882339F0813009F06EC00FC0853008F015
:1003C0006AC080911401813019F4109214010895CB
:1003D00085B191E0892785B90895809101019091B7
:1003E0000201019690930201809301012091010185
:1003F000309102018091030190910401281739077F
:1004000049F48091030190910401019790930201B6
:10041000809301018091010190910201909311015B
:100420008093100180910101909102019093160137
:100430008093150184E665E171E00E9479040895D6
:10044000809103019091040101969093040180939F
:10045000030180910301909104018333910530F0F1
:1004600082E390E090930401809303018091030163
:1004700090910401909311018093100180910301E8
:1004800090910401909316018093150188EC65E129
:1004900071E00E9479040895289881E08093130107
:1004A0000895289A1092130188E00E943B0708954E
:1004B0001F9380E00E94C007882391F0809117016C
:1004C000882341F411E0109317010E944C0210930D
:1004D000130106C0109217010E94510210921301DD
:1004E0001F910895209A289A0895299A0895299885
:1004F000089585B192E0892785B90895219A2998B0
:10050000089580911401813041F580910501843175
:1005100059F08E31B9F08A3041F58BE060E273E03A
:100520000E94220784E116C08BE00E9444078823C2
:10053000E1F00E9475028BE066E970E00E942207FC
:100540008EE108C08BE00E944407882371F00E946E
:1005500077028AE08093050108950E9477028BE07C
:100560000E943B078AE0809305010895CF93DF93B3
:10057000C5E1D1E084E6BE010E94680480911501C6
:1005800090911601909302018093010188ECBE01C5
:100590000E946804809115019091160190930401C6
:1005A00080930301DF91CF91089580911C018F5FAB
:1005B00080931C0180911C01843169F410921C010C
:1005C00080911D018F5F80931D0180911D018230FC
:1005D00011F410921D0180911D01882319F08130C2
:1005E00021F402C0419A08954198089580914501EF
:1005F000873009F44EC0883070F48330C9F18430FC
:1006000028F4813069F1823068F523C08530D9F152
:100610008630E0F534C0833309F449C0843348F4AC
:10062000893009F43FC08930C0F18A3009F061C0D7
:100630003EC0853609F448C0863620F4843609F079
:1006400058C03AC0863609F445C0873609F051C013
:1006500049C02B9A2C9A409A429A439A2A9A32C0BD
:100660002B9818C02B9A2C9A4098429A439A05C00E
:100670002B9A2C9A409A429A43982A9831C02B98E8
:100680002C9A409A2AC02B9A2C980EC02B9A2C9800
:1006900006C02B9A2C9A409A12C02B9A2C9A409AF8
:1006A000429A16C02B9A2C9A409A429A17C02B98BD
:1006B0002C9840984298E0CF2B982C9840984298DC
:1006C00043982A982D9808952B982C9A409A4298EE
:1006D000439A05C02B9A2C9A4098429843982A9A9C
:1006E0002D9A08952B9A2C984098429A439A2A9AC8
:1006F0002D980895DF93CF9300D0CDB7DEB79A83BE
:10070000898389819A8197FF06C089819A81909512
:1007100081959F4F02C089819A8190931A0180939D
:1007200019018091190190911A012AE030E0B90174
:100730000E94190A60931B018091190190911A017E
:10074000B9010E94190A8093470180911B012AE098
:10075000622F0E94F9099093440180911B010E942D
:10076000F9098093480189819A8120E389339207AE
:1007700039F483E3809347018093440180934801D7
:1007800080910601813001F1813008F441C082304E
:1007900009F04BC080914801882351F480911201E7
:1007A000813021F480911201823011F0449A01C00D
:1007B00044985D9A5E9A41988091480180934501E2
:1007C0000E94F60281E02FC0449A5E9A5D98809163
:1007D0001201882321F080911201833079F48091F5
:1007E0001801882359F489819A8197FF419A898158
:1007F0009A8197FF04C00E94D50201C04198809160
:100800004401809345010E94F602109206010DC03A
:10081000449A5D9A5E984198809147018093450182
:100820000E94F60282E0809306010F900F90CF9114
:10083000DF910895239A249A389A3A9A3B9A229AF9
:10084000259A399A569A559A3C9A08951F920F9272
:100850000FB60F9211242F938F939F93EF93FF93D3
:1008600080914901813051F590912001992319F02F
:10087000913021F518C0E0915001F0915101908123
:10088000218120931E0190931F0190914C0191BDF5
:100890009F5F90934C0190911E0190BDFA9AF99A36
:1008A000809320010BC080914C0181BD80911F017C
:1008B00080BDFA9AF99AFB9810922001FF91EF916E
:1008C0009F918F912F910F900FBE0F901F901895B1
:1008D000FB0181BD8F5FF89A90B51082918381BD35
:1008E000F89A20B580819181820F911D9183808338
:1008F0000895F999FECF91E09093490180934C01BE
:100900007093510160935001FB9A08955F98089588
:100910005F9A0895809109018E3109F45DC08F318D
:1009200040F48A30E1F0843189F1853009F0A3C0C8
:100930000AC0823309F471C08C3309F48FC0883245
:1009400009F099C055C086E068EE73E00E94220766
:1009500086E00E944407882309F48DC031C080914D
:100960000701909108018F30910508F084C08091B3
:100970000701909108018430910508F47CC087E05C
:1009800066E970E00E94220784E165C087E00E946A
:100990004407882309F46FC08091070190910801F2
:1009A0008F30910538F480910701909108018430CF
:1009B000910540F484E690E090930801809307014C
:1009C0008AE049C00E94860484E690E09093080182
:1009D000809307018EE13FC087E06CED75E00E94D7
:1009E000220787E00E944407882309F444C028C0F6
:1009F00080910701909108018F309105E0F5809179
:100A000007019091080184309105A8F187E066E91B
:100A100070E00E94220782E31EC087E00E94440724
:100A2000882349F180910701909108018F30910549
:100A300038F480910701909108018430910510F4F9
:100A400088E209C00E94880484E690E0909308013F
:100A5000809307018CE380930901089587E06CED92
:100A600075E00E94220787E00E944407882319F05E
:100A70008AE0809309010895579A0E948804089596
:100A80001F920F920FB60F9211245F936F937F9373
:100A90008F939F93AF93BF9380912101882319F087
:100AA000813069F50FC01092850010928400109279
:100AB000800082E0809381008093690081E08093D0
:100AC00021011DC010928000109281001DBA8091FA
:100AD0008400909185006AE370E00E94050A70939B
:100AE00008016093070180911201843041F48091E4
:100AF0000701909108019093110180931001BF911B
:100B0000AF919F918F917F916F915F910F900FBEE9
:100B10000F901F9018953D9A459808958AE06AEFC6
:100B200070E00E9422078AE00E944407882371F047
:100B300010922101F894459A88E28A95F1F7459838
:100B400081E08DBB83E080936900789408951F92C3
:100B50000F920FB60F9211240F900FBE0F901F909F
:100B600018951F920F920FB60F9211242F933F9357
:100B70004F935F936F937F938F939F93AF93BF93A5
:100B8000EF93FF930E947D07FF91EF91BF91AF918B
:100B90009F918F917F916F915F914F913F912F9195
:100BA0000F900FBE0F901F9018951F920F920FB6C7
:100BB0000F9211240F900FBE0F901F9018951F9247
:100BC0000F920FB60F9211240F900FBE0F901F902F
:100BD0001895CF93DF93EC0120912801222321F077
:100BE000213009F074C01CC04B9B03C0109225013A
:100BF0006EC0809125018F5F809325018091250132
:100C0000853008F464C080E00E949B0710922501A3
:100C1000109224011092230181E08093280157C093
:100C20004B992CC0109225018091230190912401B1
:100C30000196909324018093230180912301909148
:100C400024018630910510F0209327018091230123
:100C5000909124018D33910528F01092270181E0B5
:100C6000809326018091230190912401893C910574
:100C700070F11092260181E0888329C080912501BE
:100C80008F5F8093250180912501853000F180914F
:100C90002701813021F4109227010E949B07809147
:100CA0002601813029F41092260182E00E949B07E0
:100CB0008881813019F483E00E949B07188210928A
:100CC0002401109223011092250110922801DF9136
:100CD000CF91089553985B9A0895CF93DF93EC01D9
:100CE00020912E01222321F0213009F075C01CC073
:100CF0004C9B03C010922B016FC080912B018F5F22
:100D000080932B0180912B01853008F465C084E02D
:100D10000E949B0710922B0110922A011092290128
:100D200081E080932E0158C04C992CC010922B0169
:100D30008091290190912A01019690932A01809334
:100D400029018091290190912A018630910510F0A6
:100D500020932D018091290190912A018D339105D5
:100D600028F010922D0181E080932C0180912901BF
:100D700090912A01893C910578F110922C0181E033
:100D800088832AC080912B018F5F80932B018091F3
:100D90002B01853008F180912D01813029F41092CA
:100DA0002D0185E00E949B0780912C01813029F460
:100DB00010922C0186E00E949B078881813019F4F3
:100DC00087E00E949B07188210922A011092290145
:100DD00010922B0110922E01DF91CF91089554981B
:100DE0005C9A0895389A40980895389A40980895E2
:100DF000209A28980895389A4098089588B191E0EB
:100E0000892788B9089588B191E0892788B908951C
:100E100085B191E0892785B9089588B191E0892746
:100E200088B90895409A089540980895409A089581
:100E300040980895289A089528980895409A08950A
:100E40004098089590E0FC01EA5AFE4F2081222349
:100E500089F421E02083F894209130013091310110
:100E6000FC01EE0FFF1FEB59FE4F260F371F31839A
:100E7000208378940895E82FF0E0EA5AFE4F8081AD
:100E8000813009F41082089590E0DC01AA5ABE4F27
:100E90002C912130D9F4F894209130013091310116
:100EA000FC01EE0FFF1FEB59FE4F80819181281B43
:100EB000390B37FD0BC020913001309131012817DB
:100EC000390720F01C92789481E00895789480E0AE
:100ED00008951092310110923001E6E5F1E011928F
:100EE00081E0E536F807D9F7E5E6F1E011921192D5
:100EF00081E0E338F807D1F70895809130019091AF
:100F000031010196909331018093300181E080930B
:100F10002F0108951092830110928401109285018F
:100F20001092860110928701109288011092890117
:100F300010928A010895E82FF0E0ED57FE4F80816E
:100F4000882311F481E080830895E82FF0E0ED57C5
:100F5000FE4F8081882311F481E080830895E3E8C7
:100F6000F1E082E09081923009F41082908191301A
:100F700009F48083319691E0EB38F90799F70895E9
:100F8000E82FF0E0ED57FE4F8081823019F4108297
:100F900081E0089580E00895E82FF0E0ED57FE4FDE
:100FA0008081823019F4108281E0089580E00895F4
:100FB000CF93DF938091910182FF04C010923B0197
:100FC0001092910180913B01833009F486C08430F6
:100FD00028F4813079F08230F0F408C08530E1F1F6
:100FE000853030F1863009F07DC03DC00E94C308D5
:100FF00081E076C08091910181FF1EC08CEC8093CE
:10100000320184E48093330182E391E060E10E9445
:10101000D10882E065C082E060E273E00E942207AE
:1010200082E00E944407882309F45CC083E058C032
:101030008091910181FD03C010923B0153C08CEC63
:10104000809332018EEB8093330182E391E060E183
:101050000E94D10885E044C082E391E068E40E94E8
:10106000E20886E03DC0C2E3D1E060E089910E94E1
:101070007508682F81E0CA33D807C1F780913A011B
:10108000681759F59091330180E06091320170E06A
:10109000682B792B882777FD8095982F60938D0199
:1010A00070938E0180938F019093900110923B0179
:1010B0002AE030E040E050E00E94DA0920E130E030
:1010C00040E050E00E942C0A30938C0120938B0169
:1010D000309311012093100105C00E94C30884E0E1
:1010E00080933B01DF91CF91089598E028E1362F5E
:1010F000382730FD02C0669503C062276695606898
:10110000915011F08695F3CF862F089598E022E054
:1011100030E4482F462740FD03C07695679505C00B
:1011200062277327769567957068915011F08695C0
:10113000F0CFCB010895FF920F931F93CF93DF93CE
:10114000EC018C0167E0F62E60E0F80181918F01DF
:101150000E947508682FFA94C1F781E09F81691792
:1011600009F480E0DF91CF911F910F91FF900895D6
:101170001092C00088E98093C10086E08093C2008D
:101180001092910108958091910181608093910165
:1011900084E38093C400E1ECF0E08081806280838E
:1011A00008952091910121602093910190939301E2
:1011B0008093920160939401E1ECF0E08081806281
:1011C00080830895462F469546954695262F30E014
:1011D000277030702115310549F04F5F07C0FC01C1
:1011E000E40FF11D31972083415001C02FEF4423BC
:1011F000B1F70E94D10808951F920F920FB60F9277
:1012000011242F933F938F939F93EF93FF9380919C
:10121000C00084FF0EC08091C6008091910184605F
:101220008E7F809391018091C1008F7D8093C1005A
:101230005EC02091C6008091C400843381F481E0B7
:10124000203F09F480E0982F990F809191018C7FC5
:1012500024E02093C40010924101892B32C0809178
:1012600041018F5F80934101909140019695909349
:1012700040012F3F19F490689093400190919401A0
:10128000891711F5209140013091410101C0269547
:10129000832F90E0877090703F5F0097C1F7209395
:1012A000400180913F01E0919201F0919301E80F9C
:1012B000F11D20831092410110923F018091910114
:1012C0008E7F8093910113C090E08770907000979B
:1012D00071F480913F01E0919201F0919301E80F48
:1012E000F11D9091400190838F5F80933F01FF91AA
:1012F000EF919F918F913F912F910F900FBE0F9083
:101300001F9018951F920F920FB60F9211242F93D2
:101310008F939F93EF93FF938091C400843321F4C4
:1013200080EF8093C60011C080913E01882349F46C
:1013300010923C01E0919201F09193019081909381
:101340003D0190919401891741F410923E018091E2
:10135000C1008F7D8093C10023C090913D0190FF1B
:1013600004C02FEF2093C60002C01092C6009695CD
:1013700090933D018F5F80933E0190E08770907065
:10138000009771F480913C018F5F80933C01E09164
:101390009201F0919301E80FF11D808180933D014E
:1013A000FF91EF919F918F912F910F900FBE0F9012
:1013B0001F901895629FD001739FF001829FE00DEE
:1013C000F11D649FE00DF11D929FF00D839FF00DC4
:1013D000749FF00D659FF00D9927729FB00DE11D70
:1013E000F91F639FB00DE11DF91FBD01CF0111244D
:1013F0000895991B79E004C0991F961708F0961B71
:10140000881F7A95C9F780950895AA1BBB1B51E1E7
:1014100007C0AA1FBB1FA617B70710F0A61BB70B64
:10142000881F991F5A95A9F780959095BC01CD0109
:10143000089597FB092E07260AD077FD04D0E5DF33
:1014400006D000201AF4709561957F4F0895F6F745
:10145000909581959F4F089597FB092E05260ED0F4
:1014600057FD04D014D00AD0001C38F45095409594
:10147000309521953F4F4F4F5F4F0895F6F7909568
:101480008095709561957F4F8F4F9F4F0895A1E292
:101490001A2EAA1BBB1BFD010DC0AA1FBB1FEE1FEE
:1014A000FF1FA217B307E407F50720F0A21BB30B39
:1014B000E40BF50B661F771F881F991F1A9469F7B5
:1014C00060957095809590959B01AC01BD01CF0111
:0614D0000895F894FFCF1F
:0A14D6000519001E000A0287000538
:00000001FF
